{
  "transactions": [
    {
      "hash": "0xd333a8ef12a9464b354522a3b237daa678e0f566c82532e2a9d5949ac647aff2",
      "transactionType": "CALL",
      "contractName": null,
      "contractAddress": "0x5ff137d4b0fdcd49dca30c7cf57e578a026d2789",
      "function": "depositTo(address)",
      "arguments": [
        "0x988B4cCfD9846CEcAA5450Ad2668839247E77d98"
      ],
      "transaction": {
        "from": "0x8acadf16765c1a7968610e87e76bb5574b0d43e0",
        "to": "0x5ff137d4b0fdcd49dca30c7cf57e578a026d2789",
        "gas": "0xeb38",
        "value": "0x28ed6103d000",
        "input": "0xb760faf9000000000000000000000000988b4ccfd9846cecaa5450ad2668839247e77d98",
        "nonce": "0xb",
        "chainId": "0xa4b1"
      },
      "additionalContracts": [],
      "isFixedGasLimit": false
    },
    {
      "hash": "0x454790daafc6e7f09b34ca73810d7e9da82ae7bf74baa656f7289b7a50e395fc",
      "transactionType": "CALL",
      "contractName": null,
      "contractAddress": "0x988b4ccfd9846cecaa5450ad2668839247e77d98",
      "function": null,
      "arguments": null,
      "transaction": {
        "from": "0x8acadf16765c1a7968610e87e76bb5574b0d43e0",
        "to": "0x988b4ccfd9846cecaa5450ad2668839247e77d98",
        "gas": "0x6bc2",
        "value": "0x3d641185b800",
        "input": "0x",
        "nonce": "0xc",
        "chainId": "0xa4b1"
      },
      "additionalContracts": [],
      "isFixedGasLimit": false
    },
    {
      "hash": "0x1746d071c1bc2965a4e7f670a7708135b90eecc929c649d06f22bbbff438aed8",
      "transactionType": "CALL",
      "contractName": null,
      "contractAddress": "0x5ff137d4b0fdcd49dca30c7cf57e578a026d2789",
      "function": "handleOps((address,uint256,bytes,bytes,uint256,uint256,uint256,uint256,uint256,bytes,bytes)[],address)",
      "arguments": [
        "[(0x988B4cCfD9846CEcAA5450Ad2668839247E77d98, 0, 0x, 0xb61d27f6000000000000000000000000af88d065e77c8cc2239327c5edb3a432268e5831000000000000000000000000000000000000000000000000000000000000000000000000000000000000000000000000000000000000000000000000000000600000000000000000000000000000000000000000000000000000000000000044095ea7b30000000000000000000000009ea9b0cc1919def1a3cfaef4f7a66ee3c36f86fc0000000000000000000000000000000000000000000000000de0b6b3a764000000000000000000000000000000000000000000000000000000000000, 200000, 300000, 100000, 50000000, 10000000, 0x, 0xdec7ae676b596bbce0cbc3e4ee299fa5c7fa1749b26fccaa97c9989c46544f2513bae4babb309f4af97a2df48830eb8172a5a6d6604a5b47aab8e593eef5f35b1b)]",
        "0x8AcADf16765C1A7968610e87E76Bb5574B0d43E0"
      ],
      "transaction": {
        "from": "0x8acadf16765c1a7968610e87e76bb5574b0d43e0",
        "to": "0x5ff137d4b0fdcd49dca30c7cf57e578a026d2789",
        "gas": "0x2b581",
        "value": "0x0",
        "input": "0x1fad948c00000000000000000000000000000000000000000000000000000000000000400000000000000000000000008acadf16765c1a7968610e87e76bb5574b0d43e000000000000000000000000000000000000000000000000000000000000000010000000000000000000000000000000000000000000000000000000000000020000000000000000000000000988b4ccfd9846cecaa5450ad2668839247e77d980000000000000000000000000000000000000000000000000000000000000000000000000000000000000000000000000000000000000000000000000000016000000000000000000000000000000000000000000000000000000000000001800000000000000000000000000000000000000000000000000000000000030d4000000000000000000000000000000000000000000000000000000000000493e000000000000000000000000000000000000000000000000000000000000186a00000000000000000000000000000000000000000000000000000000002faf080000000000000000000000000000000000000000000000000000000000098968000000000000000000000000000000000000000000000000000000000000002a000000000000000000000000000000000000000000000000000000000000002c0000000000000000000000000000000000000000000000000000000000000000000000000000000000000000000000000000000000000000000000000000000e4b61d27f6000000000000000000000000af88d065e77c8cc2239327c5edb3a432268e5831000000000000000000000000000000000000000000000000000000000000000000000000000000000000000000000000000000000000000000000000000000600000000000000000000000000000000000000000000000000000000000000044095ea7b30000000000000000000000009ea9b0cc1919def1a3cfaef4f7a66ee3c36f86fc0000000000000000000000000000000000000000000000000de0b6b3a7640000000000000000000000000000000000000000000000000000000000000000000000000000000000000000000000000000000000000000000000000000000000000000000000000000000000000000000000000000000000000000000000000000000000000000000000000000000000000000000000000041dec7ae676b596bbce0cbc3e4ee299fa5c7fa1749b26fccaa97c9989c46544f2513bae4babb309f4af97a2df48830eb8172a5a6d6604a5b47aab8e593eef5f35b1b00000000000000000000000000000000000000000000000000000000000000",
        "nonce": "0xd",
        "chainId": "0xa4b1"
      },
      "additionalContracts": [],
      "isFixedGasLimit": false
    }
  ],
  "receipts": [
    {
      "status": "0x1",
      "cumulativeGasUsed": "0x18ed68",
      "logs": [
        {
          "address": "0x5ff137d4b0fdcd49dca30c7cf57e578a026d2789",
          "topics": [
            "0x2da466a7b24304f47e87fa2e1e5a81b9831ce54fec19055ce277ca2f39ba42c4",
            "0x000000000000000000000000988b4ccfd9846cecaa5450ad2668839247e77d98"
          ],
          "data": "0x000000000000000000000000000000000000000000000000000028ed6103d000",
          "blockHash": "0x1a617050d1a0ddea617aab97f790b9f8f88f3a09f12b61561500d598529cff64",
          "blockNumber": "0x18e40076",
          "blockTimestamp": "0x69598ad7",
          "transactionHash": "0xd333a8ef12a9464b354522a3b237daa678e0f566c82532e2a9d5949ac647aff2",
          "transactionIndex": "0x7",
          "logIndex": "0x14",
          "removed": false
        }
      ],
      "logsBloom": "0x00000000000000000000000000000000000000000000000000000000000000000000000000000000000200000000000000100000000000000000000000000000000000000000000000000000000000000000000000000000000000000000200000000000080000000000000000000000000000000000000000000000000200000000000000000000000000000000000100000000000000000000000000000000000000000000000000000000000000000000000000000000000000000000000000000000000000000000000000020000000000000000000000000000000000000040000000000004000000000000000000000000000000000000000000000000",
      "type": "0x2",
      "transactionHash": "0xd333a8ef12a9464b354522a3b237daa678e0f566c82532e2a9d5949ac647aff2",
      "transactionIndex": "0x7",
      "blockHash": "0x1a617050d1a0ddea617aab97f790b9f8f88f3a09f12b61561500d598529cff64",
      "blockNumber": "0x18e40076",
      "gasUsed": "0xb372",
      "effectiveGasPrice": "0xa3b240",
      "from": "0x8acadf16765c1a7968610e87e76bb5574b0d43e0",
      "to": "0x5ff137d4b0fdcd49dca30c7cf57e578a026d2789",
      "contractAddress": null,
      "gasUsedForL1": "0x0",
      "l1BlockNumber": "0x1709a9d",
      "timeboosted": false
    },
    {
      "status": "0x1",
      "cumulativeGasUsed": "0x28f089",
      "logs": [],
      "logsBloom": "0x00000000000000000000000000000000000000000000000000000000000000000000000000000000000000000000000000000000000000000000000000000000000000000000000000000000000000000000000000000000000000000000000000000000000000000000000000000000000000000000000000000000000000000000000000000000000000000000000000000000000000000000000000000000000000000000000000000000000000000000000000000000000000000000000000000000000000000000000000000000000000000000000000000000000000000000000000000000000000000000000000000000000000000000000000000000",
      "type": "0x2",
      "transactionHash": "0x454790daafc6e7f09b34ca73810d7e9da82ae7bf74baa656f7289b7a50e395fc",
      "transactionIndex": "0x11",
      "blockHash": "0x578d42602b60ad974fb5c11232798cae2196ec48726568138e9baee6ff545a37",
      "blockNumber": "0x18e40082",
      "gasUsed": "0x523f",
      "effectiveGasPrice": "0xb457f8",
      "from": "0x8acadf16765c1a7968610e87e76bb5574b0d43e0",
      "to": "0x988b4ccfd9846cecaa5450ad2668839247e77d98",
      "contractAddress": null,
      "gasUsedForL1": "0x0",
      "l1BlockNumber": "0x1709a9d",
      "timeboosted": false
    },
    {
      "status": "0x1",
      "cumulativeGasUsed": "0x5c889",
      "logs": [
        {
          "address": "0x5ff137d4b0fdcd49dca30c7cf57e578a026d2789",
          "topics": [
            "0xbb47ee3e183a558b1a2ff0874b079f3fc5478b7454eacf2bfc5af2ff5878f972"
          ],
          "data": "0x",
          "blockHash": "0x9cb057ac8ea97f9973549c07cb759b6c09c6eb213aa5004863e60907dd97a1ef",
          "blockNumber": "0x18e4008e",
          "blockTimestamp": "0x69598ade",
          "transactionHash": "0x1746d071c1bc2965a4e7f670a7708135b90eecc929c649d06f22bbbff438aed8",
          "transactionIndex": "0x4",
          "logIndex": "0x1",
          "removed": false
        },
        {
          "address": "0xaf88d065e77c8cc2239327c5edb3a432268e5831",
          "topics": [
            "0x8c5be1e5ebec7d5bd14f71427d1e84f3dd0314c0f7b2291e5b200ac8c7c3b925",
            "0x000000000000000000000000988b4ccfd9846cecaa5450ad2668839247e77d98",
            "0x0000000000000000000000009ea9b0cc1919def1a3cfaef4f7a66ee3c36f86fc"
          ],
          "data": "0x0000000000000000000000000000000000000000000000000de0b6b3a7640000",
          "blockHash": "0x9cb057ac8ea97f9973549c07cb759b6c09c6eb213aa5004863e60907dd97a1ef",
          "blockNumber": "0x18e4008e",
          "blockTimestamp": "0x69598ade",
          "transactionHash": "0x1746d071c1bc2965a4e7f670a7708135b90eecc929c649d06f22bbbff438aed8",
          "transactionIndex": "0x4",
          "logIndex": "0x2",
          "removed": false
        },
        {
          "address": "0x5ff137d4b0fdcd49dca30c7cf57e578a026d2789",
          "topics": [
            "0x49628fd1471006c1482da88028e9ce4dbb080b815c9b0344d39e5a8e6ec1419f",
            "0x1f827f61c643ba6b800fbd15cb9649839e54777cf6e0194d6dca842c5bc3f88b",
            "0x000000000000000000000000988b4ccfd9846cecaa5450ad2668839247e77d98",
            "0x0000000000000000000000000000000000000000000000000000000000000000"
          ],
          "data": "0x00000000000000000000000000000000000000000000000000000000000000000000000000000000000000000000000000000000000000000000000000000001000000000000000000000000000000000000000000000000000003ab460e4800000000000000000000000000000000000000000000000000000000000002c7a2",
          "blockHash": "0x9cb057ac8ea97f9973549c07cb759b6c09c6eb213aa5004863e60907dd97a1ef",
          "blockNumber": "0x18e4008e",
          "blockTimestamp": "0x69598ade",
          "transactionHash": "0x1746d071c1bc2965a4e7f670a7708135b90eecc929c649d06f22bbbff438aed8",
          "transactionIndex": "0x4",
          "logIndex": "0x3",
          "removed": false
        }
      ],
      "logsBloom": "0x00000000000000000000000000000000000000000000000000000000000000000008000000000000000200010000000000180001000000000000020000a000000000000000000000000000000000000000000000000000000000000000000000000000000a0100000000000000000800000000000000000000000000000001000000000000000000000000000000000100000000000000000000000000000000020000000000000000400000000000000000000000000002000002000000000000002000000000000001000000020000000000000004000000000000000020000010000000000004000000000000200000000000000000000000000000000000",
      "type": "0x2",
      "transactionHash": "0x1746d071c1bc2965a4e7f670a7708135b90eecc929c649d06f22bbbff438aed8",
      "transactionIndex": "0x4",
      "blockHash": "0x9cb057ac8ea97f9973549c07cb759b6c09c6eb213aa5004863e60907dd97a1ef",
      "blockNumber": "0x18e4008e",
      "gasUsed": "0x1f616",
      "effectiveGasPrice": "0xb94d80",
      "from": "0x8acadf16765c1a7968610e87e76bb5574b0d43e0",
      "to": "0x5ff137d4b0fdcd49dca30c7cf57e578a026d2789",
      "contractAddress": null,
      "gasUsedForL1": "0x0",
      "l1BlockNumber": "0x1709a9e",
      "timeboosted": false
    }
  ],
  "libraries": [],
  "pending": [],
  "returns": {},
  "timestamp": 1767475934012,
  "chain": 42161,
  "commit": "ef1b387"
}